:100000000C9461000C947E000C947E000C947E0095
:100010000C94E3020C947E000C947E000C947E0001
:100020000C947E000C947E000C947E000C947E0058
:100030000C947E000C947E000C947E000C947E0048
:100040000C947E000C947E000C94BE020C947E00F6
:100050000C947E000C945A020C947E000C947E004A
:100060000C947E000C947E004D0353035C036503E7
:100070006E0377038003890392039B03A403300478
:1000800036043F04480451045A0463046C045E05BA
:100090006C057A051D0688059905AA05BB05C905E5
:1000A000DA05EB05FC050D067C068A0698063B077B
:1000B000A606B706C806D906E706F80609071A070E
:1000C0002B0711241FBECFEFD8E0DEBFCDBF11E05C
:1000D000A0E0B1E0E0EAF4E102C005900D92A230A8
:1000E000B107D9F721E0A2E0B1E001C01D92AD3027
:1000F000B207E1F70E9411010C944E0A0C94000023
:100100008F92AF92CF92EF920F93CF9310926100A4
:10011000C12C6894EE24E4F801E021E047E060E0BF
:1001200081E00E9407038FE39CE99093870080930E
:10013000860017B88AB18C608AB9C1E0C6B9EAE70F
:10014000F0E080818064808341E060E074E081E0E1
:100150000E94940441E060E074E081E00E94E804C1
:1001600041E068E070E08BE00E943C0541E068E01F
:1001700070E08BE00E945A06CF9380EA8F931F9223
:10018000CF931F92882483946894AA24A3F8CC2444
:10019000C394EE24E39400E021E040E060E080E0DE
:1001A0000E94780782E08093680083E080936C006F
:1001B0006FE080E190E00E947D0460EA81E190E0E0
:1001C0000E947D0460E082E190E00E947D046FEF78
:1001D00083E190E00E947D046AE084E190E00E9467
:1001E0007D0468E285E190E00E947D0467E086E19D
:1001F00090E00E947D0460ED87E190E00E947D0424
:1002000060E888E190E00E947D040F900F900F90CD
:100210000F900F90CF910F91EF90CF90AF908F9064
:100220000895F8940E9480007894809102018130B2
:1002300009F45BC020F0823009F402C1F6CFE1EC92
:10024000F0E080818F7B808385B1877E85B985B121
:10025000886085B96091030170E080E090E00E94C1
:100260004F092BED39EF4AEF50E40E94DB0920E003
:1002700030E04AEF54E40E94B2080E941E097093D5
:100280008900609388006091050170E080E090E053
:100290000E944F092BED39EF4AEF50E40E94DB0931
:1002A00020E030E04AEF54E40E94B2080E941E09A8
:1002B00070938B0060938A0080910C0187BD8091C0
:1002C000090188BD8BB1837F8BB94BB120910401AB
:1002D00030E02E5F3F4F81E090E002C0880F991F11
:1002E0002A95E2F7842B8BB9A0CFE1ECF0E0808176
:1002F0008064808385B1877E85B985B1806185B949
:1003000080910801853009F090CF80910B018830F1
:1003100071F118F4843041F088CF803109F44AC07B
:10032000803209F46AC081CF80E190E00E948B04A2
:100330008093890081E190E00E948B048093880083
:1003400086E190E00E948B0480938B0087E190E02F
:100350000E948B0480938A0082E190E00E948B04CB
:1003600087BD82E190E00E948B0488BD5ECF84E16E
:1003700090E00E948B048093890085E190E00E94C8
:100380008B048093880080E190E00E948B0480932E
:100390008B0081E190E00E948B0480938A0082E1CF
:1003A00090E00E948B0487BD82E190E00E948B0464
:1003B00088BD3BCF80E190E00E948B048093890050
:1003C00081E190E00E948B048093880086E190E0B8
:1003D0000E948B0480938B0087E190E00E948B0445
:1003E00080938A0083E190E00E948B0487BD88E1BE
:1003F00090E00E948B0488BD18CF80E190E00E94BD
:100400008B048093890081E190E00E948B048093AB
:10041000880086E190E00E948B0480938B0087E146
:1004200090E00E948B0480938A0088E190E00E9413
:100430008B0487BD83E190E00E948B0488BDF5CEDC
:10044000E1ECF0E080818064808385B1877E85B9AE
:1004500085B1886185B9809108018230B1F018F4C6
:10046000813031F0E2CE8330E9F08430F9F0DDCE36
:1004700080910B012BE0829FC00111248053984F83
:100480009093890080938800D0CE80910B012BE05F
:10049000829FC00111248053984F90938B008093CA
:1004A0008A00C3CE80910B0187BDBFCE80910B0126
:1004B00087BDBBCE1F920F920FB60F9211248F9360
:1004C000EF93FF9380910701823031F08091070113
:1004D0008F5F809307014AC080910601813099F0B7
:1004E00028F08230E9F0833041F133C08091790007
:1004F00080930301ECE7F0E08081887F8083808136
:100500008660808326C08091790080930501ECE7A6
:10051000F0E08081887F808380818560808319C03E
:100520008091790080930C01ECE7F0E08081887F76
:1005300080838081846080830CC080917900809367
:100540000901ECE7F0E08081887F8083808187600B
:100550008083809106018F5F809306018091060160
:10056000843011F41092060110920701FF91EF916F
:100570008F910F900FBE0F901F9018951F920F92A2
:100580000FB60F9211248F938091C60080930A01B9
:1005900080910001813051F480910A01809308011B
:1005A000809100018F5F8093000107C080910A0154
:1005B00080930B0181E0809300018F910F900FBE1B
:1005C0000F901F9018951F920F920FB60F92112443
:1005D0008F939F9330990CC080910201823019F45F
:1005E0001092020105C0809102018F5F8093020189
:1005F000319906C09091040181E08927809304011C
:100600009F918F910F900FBE0F901F901895CF92D2
:10061000EF920F939E2DAAE7B0E03C9130683C9397
:10062000813051F018F0823081F018C0ACE7B0E0B2
:100630008C918F738C931AC0ACE7B0E08C918F7360
:100640008C938C9180648C9311C0ACE7B0E08C915A
:100650008F738C938C91806C8C9308C0ACE7B0E066
:100660008C918F738C938C9180648C93613031F476
:10067000ACE7B0E08C918F7D8C9305C0ACE7B0E027
:100680008C9180628C9350E04B30510508F065C02E
:10069000FA01EC5CFF4F0C94480AECE7F0E0808133
:1006A000807F808362C0ECE7F0E08081807F808380
:1006B00080818160808359C0ECE7F0E08081807F99
:1006C000808380818260808350C0ECE7F0E080818D
:1006D000807F808380818360808347C0ECE7F0E087
:1006E0008081807F80838081846080833EC0ECE74E
:1006F000F0E08081807F808380818560808335C049
:10070000ECE7F0E08081807F808380818660808359
:100710002CC0ECE7F0E08081807F8083808187605F
:10072000808323C0ECE7F0E08081807F808380813C
:10073000886080831AC0ECE7F0E08081807F80834E
:1007400080818E60808311C0ECE7F0E08081807F43
:10075000808380818F60808308C0ECE7F0E0808137
:10076000807F8083808187608083213031F4EAE755
:10077000F0E080818062808305C0EAE7F0E080815C
:100780008F7D8083013031F4EAE7F0E0808188607A
:10079000808305C0EAE7F0E08081877F8083903125
:1007A00041F140F4943099F09830D1F0923009F052
:1007B00044C007C0903479F19038B1F19032E9F536
:1007C00021C0EAE7F0E08081887F80833EC0EAE7CD
:1007D000F0E08081887F808380818260808335C063
:1007E000EAE7F0E08081887F808380818360808376
:1007F0002CC0EAE7F0E08081887F8083808184607C
:10080000808323C0EAE7F0E08081887F8083808155
:10081000856080831AC0EAE7F0E08081887F80836A
:1008200080818660808311C0EAE7F0E08081887F64
:10083000808380818760808308C0EAE7F0E0808160
:10084000887F80838081846080838C2D90E08830D5
:10085000910508F049C0FC01E15CFF4F0C94480A87
:10086000EBE7F0E08081887F80833EC0EBE7F0E03B
:100870008081887F808380818160808335C0EBE7C1
:10088000F0E08081887F80838081826080832CC0BB
:10089000EBE7F0E08081887F8083808183608083C4
:1008A00023C0EBE7F0E08081887F808380818460D3
:1008B00080831AC0EBE7F0E08081887F80838081AD
:1008C0008560808311C0EBE7F0E08081887F8083C2
:1008D00080818660808308C0EBE7F0E08081887FBC
:1008E0008083808187608083EAE7F0E08081806494
:1008F00080830F91EF90CF900895F999FECF92BD2C
:1009000081BD60BDF8948FB384608FBB8FB382606C
:100910008FBB78940895F999FECF92BD81BD8FB3B6
:1009200081608FBB80B508959AB190649AB94111E6
:1009300007C094B59F7394BD94B5906C94BD06C0E8
:1009400094B59F7394BD94B5906894BD811107C010
:1009500084B58C7F84BD84B5816084BD06C084B5B8
:100960008C7F84BD84B5836084BD60347105A1F043
:1009700024F46830710549F024C0611581E07807DE
:1009800091F061157440B1F01CC085B5887F85BDBC
:1009900085B5826085BD089585B5887F85BD85B59F
:1009A000836085BD089585B5887F85BD85B58460E4
:1009B00085BD089585B5887F85BD85B5856085BD74
:1009C000089585B5887F85BD85B5816085BD08950D
:1009D0009AB190629AB9411107C094B59F7E94BDB7
:1009E00094B5906394BD06C094B59F7C94BD94B5B6
:1009F000906294BD811107C084B58C7F84BD84B59D
:100A0000816084BD06C084B58C7F84BD84B583605D
:100A100084BD60347105A1F024F46830710549F09B
:100A200024C0611581E0780791F061157440B1F040
:100A30001CC085B5887F85BD85B5826085BD08955C
:100A400085B5887F85BD85B5836085BD089585B5ED
:100A5000887F85BD85B5846085BD089585B5887F0F
:100A600085BD85B5856085BD089585B5887F85BDC3
:100A700085B5816085BD0895E82F84B1826084B911
:100A8000411109C0A0E8B0E08C918F7C8C938C91CF
:100A900080638C9308C0A0E8B0E08C918F7C8C932D
:100AA0008C9180628C938E2F90E08D30910508F0B0
:100AB000C4C0FC01E95BFF4F0C94480AE0E8F0E099
:100AC00080818C7F8083A1E8B0E08C91877E8C93BD
:100AD000808181608083B1C0E0E8F0E080818C7F1C
:100AE0008083A1E8B0E08C91877E8C9380818260C6
:100AF0008083A3C0E0E8F0E080818C7F8083A1E860
:100B0000B0E08C91877E8C9380818360808395C0D8
:100B1000E0E8F0E080818C7F8083A1E8B0E08C91F8
:100B2000877E8C938C9188608C9380818160808398
:100B300084C0E0E8F0E080818C7F8083A1E8B0E0B1
:100B40008C91877E8C938C9188608C93808182605D
:100B5000808373C0E0E8F0E080818C7F8083A1E82F
:100B6000B0E08C91877E8C938C9188608C9380818F
:100B70008360808362C0E0E8F0E080818C7F8083C6
:100B8000E1E8F0E08081877E8083808180618083DE
:100B900054C0E0E8F0E080818C7F8083A1E8B0E081
:100BA0008C91877E8C938C9180618C938081816005
:100BB000808343C0E0E8F0E080818C7F8083A1E8FF
:100BC000B0E08C91877E8C938C9180618C93808136
:100BD0008260808332C0E0E8F0E080818C7F808397
:100BE000A1E8B0E08C91877E8C938C9180618C938E
:100BF00080818360808321C0E0E8F0E080818C7F89
:100C00008083A1E8B0E08C91877E8C938C91886181
:100C10008C9380818260808310C0E0E8F0E0808166
:100C20008C7F8083A1E8B0E08C91877E8C938C913F
:100C300088618C9380818360808360347105B1F01A
:100C400024F46830710549F02CC0611581E0780703
:100C5000B1F061157440E1F024C0E1E8F0E080817A
:100C6000887F80838081826080830895E1E8F0E05E
:100C70008081887F80838081836080830895E1E81C
:100C8000F0E08081887F8083808184608083089504
:100C9000E1E8F0E08081887F8083808185608083C7
:100CA0000895E1E8F0E08081887F80838081816021
:100CB00080830895E82F84B1846084B9411109C00C
:100CC000A0E8B0E08C918F738C938C91806C8C93A6
:100CD00008C0A0E8B0E08C918F738C938C918068F1
:100CE0008C938E2F90E08D30910508F0C4C0FC01EC
:100CF000EC5AFF4F0C94480AE0E8F0E080818C7FCA
:100D00008083A1E8B0E08C91877E8C9380818160A4
:100D10008083B1C0E0E8F0E080818C7F8083A1E82F
:100D2000B0E08C91877E8C93808182608083A3C0A9
:100D3000E0E8F0E080818C7F8083A1E8B0E08C91D6
:100D4000877E8C9380818360808395C0E0E8F0E0AB
:100D500080818C7F8083A1E8B0E08C91877E8C932A
:100D60008C9188608C9380818160808384C0E0E86E
:100D7000F0E080818C7F8083A1E8B0E08C91877E59
:100D80008C938C9188608C9380818260808373C007
:100D9000E0E8F0E080818C7F8083A1E8B0E08C9176
:100DA000877E8C938C9188608C9380818360808314
:100DB00062C0E0E8F0E080818C7F8083E1E8F0E0D1
:100DC0008081877E808380818061808354C0E0E859
:100DD000F0E080818C7F8083A1E8B0E08C91877EF9
:100DE0008C938C9180618C9380818160808343C0DF
:100DF000E0E8F0E080818C7F8083A1E8B0E08C9116
:100E0000877E8C938C9180618C93808182608083BB
:100E100032C0E0E8F0E080818C7F8083A1E8B0E020
:100E20008C91877E8C938C9180618C938081836080
:100E3000808321C0E0E8F0E080818C7F8083A1E89E
:100E4000B0E08C91877E8C938C9188618C938081AB
:100E50008260808310C0E0E8F0E080818C7F808336
:100E6000A1E8B0E08C91877E8C938C9188618C9303
:100E700080818360808360347105B1F024F4683030
:100E8000710549F02CC0611581E07807B1F061155A
:100E90007440E1F024C0E1E8F0E08081887F808345
:100EA0008081826080830895E1E8F0E08081887F1E
:100EB00080838081836080830895E1E8F0E0808111
:100EC000887F80838081846080830895E1E8F0E0FA
:100ED0008081887F80838081856080830895E1E8B8
:100EE000F0E08081887F80838081816080830895A5
:100EF0008F92AF92CF92EF920F93CF93DF93CDB7B4
:100F0000DEB79A2D782D5A853AB13E7F3AB93AB17B
:100F100032603AB9813031F4E0ECF0E080818260F7
:100F2000808305C0E0ECF0E080818D7F80836130BC
:100F300031F4E0ECF0E080818160808305C0E0EC7A
:100F4000F0E080818E7F8083213031F4E1ECF0E0AD
:100F500080818068808305C0E1ECF0E080818F773C
:100F60008083413031F4E1ECF0E080818064808363
:100F700005C0E1ECF0E080818F7B8083013031F4AB
:100F8000E1ECF0E080818062808305C0E1ECF0E07C
:100F900080818F7D808381E0E81206C0E1ECF0E083
:100FA00080818061808305C0E1ECF0E080818F7EEC
:100FB000808381E0C81206C0E1ECF0E080818860A7
:100FC000808305C0E1ECF0E08081877F80839730EB
:100FD00021F128F4953041F0963089F04BC09830DB
:100FE00051F19930B1F146C0E1ECF0E080818B7FA6
:100FF0008083E2ECF0E08081897F808348C0E1EC6F
:10100000F0E080818B7F8083E2ECF0E08081897F5B
:1010100080838081826080833AC0E1ECF0E080814F
:101020008B7F8083E2ECF0E08081897F8083808108
:10103000846080832CC0E1ECF0E080818B7F808332
:10104000E2ECF0E08081897F80838081866080830C
:101050001EC0A1ECB0E08C918B7F8C93E2ECF0E0B1
:101060008081897F80838C9184608C93808186606D
:1010700080830DC0E1ECF0E080818B7F8083E2EC27
:10108000F0E08081897F80838081866080837230F8
:1010900051F0733089F07130A9F4E2ECF0E0808116
:1010A0008F77808314C0E2ECF0E080818F738083BF
:1010B0008081806480830BC0E2ECF0E08081806CF2
:1010C000808305C0E2ECF0E080818F77808351302F
:1010D00099F018F0523039F015C0E2ECF0E0808160
:1010E0008F7C808314C0E2ECF0E080818F7C808371
:1010F0008081806280830BC0E2ECF0E080818063BD
:10110000808305C0E2ECF0E080818F7C80838B855A
:10111000823031F4E2ECF0E080818860808305C0A9
:10112000E2ECF0E08081877F80838C85811106C0AE
:10113000E2ECF0E080818160808305C0E2ECF0E0C9
:1011400080818E7F80838D859E859093C50080935E
:10115000C400DF91CF910F91EF90CF90AF908F901F
:1011600008955058BB27AA270E94C9080C94A109CA
:101170000E94930938F00E949A0920F039F49F3FA9
:1011800019F426F40C9490090EF4E095E7FB0C9406
:101190008A09E92F0E94B20958F3BA176207730748
:1011A0008407950720F079F4A6F50C94D4090EF481
:1011B000E0950B2EBA2FA02D0B01B90190010C0167
:1011C000CA01A0011124FF27591B99F0593F50F47F
:1011D000503E68F11A16F040A22F232F342F4427D7
:1011E000585FF3CF469537952795A795F0405395CF
:1011F000C9F77EF41F16BA0B620B730B840BBAF09F
:101200009150A1F0FF0FBB1F661F771F881FC2F709
:101210000EC0BA0F621F731F841F48F4879577951D
:101220006795B795F7959E3F08F0B0CF9395880FD7
:1012300008F09927EE0F9795879508950E94BA09AF
:1012400088F09F5798F0B92F9927B751B0F0E1F087
:10125000660F771F881F991F1AF0BA95C9F714C037
:10126000B13091F00E94D409B1E008950C94D409F2
:10127000672F782F8827B85F39F0B93FCCF3869570
:1012800077956795B395D9F73EF4909580957095CD
:1012900061957F4F8F4F9F4F0895E89409C097FB4A
:1012A0003EF490958095709561957F4F8F4F9F4F3D
:1012B0009923A9F0F92F96E9BB279395F695879581
:1012C00077956795B795F111F8CFFAF4BB0F11F444
:1012D00060FF1BC06F5F7F4F8F4F9F4F16C08823EB
:1012E00011F096E911C0772321F09EE8872F762F21
:1012F00005C0662371F096E8862F70E060E02AF062
:101300009A95660F771F881FDAF7880F969587954D
:1013100097F9089597F99F6780E870E060E0089575
:101320009FEF80EC089500240A94161617061806FD
:101330000906089500240A941216130614060506D9
:101340000895092E0394000C11F4882352F0BB0F6A
:1013500040F4BF2B11F460FF04C06F5F7F4F8F4FCD
:101360009F4F089557FD9058440F551F59F05F3F08
:1013700071F04795880F97FB991F61F09F3F79F0B7
:1013800087950895121613061406551FF2CF469539
:10139000F1DF08C0161617061806991FF1CF8695BB
:1013A0007105610508940895E894BB27662777279F
:1013B000CB0197F908950E94EE090C94A1090E94AF
:1013C000930938F00E949A0920F0952311F00C94AB
:1013D0008A090C94900911240C94D5090E94B20931
:1013E00070F3959FC1F3950F50E0551F629FF00178
:1013F000729FBB27F00DB11D639FAA27F00DB11D91
:10140000AA1F649F6627B00DA11D661F829F222719
:10141000B00DA11D621F739FB00DA11D621F839FA0
:10142000A00D611D221F749F3327A00D611D231F76
:10143000849F600D211D822F762F6A2F11249F57C4
:1014400050409AF0F1F088234AF0EE0FFF1FBB1FC7
:10145000661F771F881F91505040A9F79E3F510586
:1014600080F00C948A090C94D5095F3FE4F3983E10
:10147000D4F3869577956795B795F795E7959F5F30
:10148000C1F7FE2B880F911D9695879597F90895C2
:10149000EE0FFF1F0590F491E02D0994F894FFCF13
:0214A000010049
:00000001FF
